{
  "_format": "hh-sol-artifact-1",
  "contractName": "BookLibrary",
  "sourceName": "contracts/BookLibrary.sol",
  "abi": [
    {
      "inputs": [],
      "name": "BookLibrary__BookIdOutOfRange",
      "type": "error"
    },
    {
      "inputs": [],
      "name": "BookLibrary__BookNotBorrowed",
      "type": "error"
    },
    {
      "inputs": [],
      "name": "BookLibrary__BookOutOfStock",
      "type": "error"
    },
    {
      "inputs": [],
      "name": "BookLibrary__CountCannotBeZero",
      "type": "error"
    },
    {
      "inputs": [],
      "name": "BookLibrary__NameCannotBeEmpty",
      "type": "error"
    },
    {
      "inputs": [],
      "name": "BookLibrary__UserAlreadyBorrowedBook",
      "type": "error"
    },
    {
      "anonymous": false,
      "inputs": [
        {
          "indexed": false,
          "internalType": "uint256",
          "name": "bookId",
          "type": "uint256"
        },
        {
          "indexed": false,
          "internalType": "string",
          "name": "name",
          "type": "string"
        },
        {
          "indexed": false,
          "internalType": "uint256",
          "name": "count",
          "type": "uint256"
        }
      ],
      "name": "BookAdded",
      "type": "event"
    },
    {
      "anonymous": false,
      "inputs": [
        {
          "indexed": true,
          "internalType": "uint256",
          "name": "bookId",
          "type": "uint256"
        },
        {
          "indexed": true,
          "internalType": "address",
          "name": "user",
          "type": "address"
        }
      ],
      "name": "BookBorrowed",
      "type": "event"
    },
    {
      "anonymous": false,
      "inputs": [
        {
          "indexed": true,
          "internalType": "uint256",
          "name": "bookId",
          "type": "uint256"
        },
        {
          "indexed": true,
          "internalType": "address",
          "name": "user",
          "type": "address"
        }
      ],
      "name": "BookReturned",
      "type": "event"
    },
    {
      "anonymous": false,
      "inputs": [
        {
          "indexed": true,
          "internalType": "address",
          "name": "previousOwner",
          "type": "address"
        },
        {
          "indexed": true,
          "internalType": "address",
          "name": "newOwner",
          "type": "address"
        }
      ],
      "name": "OwnershipTransferred",
      "type": "event"
    },
    {
      "inputs": [
        {
          "internalType": "string",
          "name": "_name",
          "type": "string"
        },
        {
          "internalType": "uint16",
          "name": "_count",
          "type": "uint16"
        }
      ],
      "name": "addBook",
      "outputs": [],
      "stateMutability": "nonpayable",
      "type": "function"
    },
    {
      "inputs": [],
      "name": "bookCount",
      "outputs": [
        {
          "internalType": "uint256",
          "name": "",
          "type": "uint256"
        }
      ],
      "stateMutability": "view",
      "type": "function"
    },
    {
      "inputs": [
        {
          "internalType": "uint256",
          "name": "_id",
          "type": "uint256"
        }
      ],
      "name": "borrowBook",
      "outputs": [],
      "stateMutability": "nonpayable",
      "type": "function"
    },
    {
      "inputs": [
        {
          "internalType": "uint256",
          "name": "_id",
          "type": "uint256"
        }
      ],
      "name": "checkBorrower",
      "outputs": [
        {
          "internalType": "bool",
          "name": "",
          "type": "bool"
        }
      ],
      "stateMutability": "view",
      "type": "function"
    },
    {
      "inputs": [
        {
          "internalType": "uint256",
          "name": "_id",
          "type": "uint256"
        }
      ],
      "name": "getBookById",
      "outputs": [
        {
          "components": [
            {
              "internalType": "string",
              "name": "name",
              "type": "string"
            },
            {
              "internalType": "uint16",
              "name": "count",
              "type": "uint16"
            }
          ],
          "internalType": "struct BookLibrary.Book",
          "name": "",
          "type": "tuple"
        }
      ],
      "stateMutability": "view",
      "type": "function"
    },
    {
      "inputs": [
        {
          "internalType": "address",
          "name": "sender",
          "type": "address"
        },
        {
          "internalType": "uint256",
          "name": "_id",
          "type": "uint256"
        }
      ],
      "name": "getUserBookId",
      "outputs": [
        {
          "internalType": "string",
          "name": "",
          "type": "string"
        }
      ],
      "stateMutability": "pure",
      "type": "function"
    },
    {
      "inputs": [],
      "name": "owner",
      "outputs": [
        {
          "internalType": "address",
          "name": "",
          "type": "address"
        }
      ],
      "stateMutability": "view",
      "type": "function"
    },
    {
      "inputs": [],
      "name": "renounceOwnership",
      "outputs": [],
      "stateMutability": "nonpayable",
      "type": "function"
    },
    {
      "inputs": [
        {
          "internalType": "uint256",
          "name": "_id",
          "type": "uint256"
        }
      ],
      "name": "returnBook",
      "outputs": [],
      "stateMutability": "nonpayable",
      "type": "function"
    },
    {
      "inputs": [
        {
          "internalType": "address",
          "name": "newOwner",
          "type": "address"
        }
      ],
      "name": "transferOwnership",
      "outputs": [],
      "stateMutability": "nonpayable",
      "type": "function"
    },
    {
      "inputs": [],
      "name": "viewBookList",
      "outputs": [
        {
          "components": [
            {
              "internalType": "string",
              "name": "name",
              "type": "string"
            },
            {
              "internalType": "uint16",
              "name": "count",
              "type": "uint16"
            }
          ],
          "internalType": "struct BookLibrary.Book[]",
          "name": "",
          "type": "tuple[]"
        }
      ],
      "stateMutability": "view",
      "type": "function"
    },
    {
      "inputs": [],
      "name": "viewPastBorrowings",
      "outputs": [
        {
          "components": [
            {
              "internalType": "address",
              "name": "borrower",
              "type": "address"
            },
            {
              "internalType": "string",
              "name": "bookName",
              "type": "string"
            },
            {
              "internalType": "uint256",
              "name": "time",
              "type": "uint256"
            }
          ],
          "internalType": "struct BookLibrary.BookReceipt[]",
          "name": "",
          "type": "tuple[]"
        }
      ],
      "stateMutability": "view",
      "type": "function"
    }
  ],
  "bytecode": "0x608060405234801561001057600080fd5b5061001a3361001f565b61006f565b600080546001600160a01b038381166001600160a01b0319831681178455604051919092169283917f8be0079c531659141344cd1fd0a4f28419497f9722a3daafe3b4186f6b6457e09190a35050565b61145f8061007e6000396000f3fe608060405234801561001057600080fd5b50600436106100d45760003560e01c80638da5cb5b11610081578063b905ad781161005b578063b905ad78146101ba578063ca5140c9146101d1578063f2fde38b146101e457600080fd5b80638da5cb5b146101775780639f78dab014610192578063b4d8dab5146101a757600080fd5b806360dfe513116100b257806360dfe51314610145578063715018a61461015a5780637e490a9e1461016457600080fd5b806324b62d29146100d9578063418b79ab146101025780634fbf351d14610122575b600080fd5b6100ec6100e7366004610e9f565b6101f7565b6040516100f99190610f19565b60405180910390f35b610115610110366004610f33565b61022c565b6040516100f99190610f79565b610135610130366004610f33565b61036b565b60405190151581526020016100f9565b61014d6103f4565b6040516100f99190610f8c565b6101626104f3565b005b610162610172366004610f33565b610507565b6000546040516001600160a01b0390911681526020016100f9565b61019a610845565b6040516100f99190610fee565b6101626101b53660046110a0565b61094d565b6101c360035481565b6040519081526020016100f9565b6101626101df366004610f33565b610adf565b6101626101f2366004611162565b610bfa565b60608261020383610c8f565b60405160200161021492919061117d565b60405160208183030381529060405290505b92915050565b604080518082019091526060815260006020820152816003546000036102655760405163e43467a960e01b815260040160405180910390fd5b600160035461027491906111cb565b8111156102945760405163e43467a960e01b815260040160405180910390fd5b600183815481106102a7576102a76111de565b90600052602060002090600202016040518060400160405290816000820180546102d0906111f4565b80601f01602080910402602001604051908101604052809291908181526020018280546102fc906111f4565b80156103495780601f1061031e57610100808354040283529160200191610349565b820191906000526020600020905b81548152906001019060200180831161032c57829003601f168201915b50505091835250506001919091015461ffff1660209091015291505b50919050565b6000816003546000036103915760405163e43467a960e01b815260040160405180910390fd5b60016003546103a091906111cb565b8111156103c05760405163e43467a960e01b815260040160405180910390fd5b60046103cc33856101f7565b6040516103d99190611228565b9081526040519081900360200190205460ff16915050919050565b60606001805480602002602001604051908101604052809291908181526020016000905b828210156104ea578382906000526020600020906002020160405180604001604052908160008201805461044b906111f4565b80601f0160208091040260200160405190810160405280929190818152602001828054610477906111f4565b80156104c45780601f10610499576101008083540402835291602001916104c4565b820191906000526020600020905b8154815290600101906020018083116104a757829003601f168201915b505050918352505060019182015461ffff16602091820152918352929092019101610418565b50505050905090565b6104fb610dcc565b6105056000610e26565b565b8060035460000361052b5760405163e43467a960e01b815260040160405180910390fd5b600160035461053a91906111cb565b81111561055a5760405163e43467a960e01b815260040160405180910390fd5b600461056633846101f7565b6040516105739190611228565b9081526040519081900360200190205460ff16156105bd576040517f2e77cc6200000000000000000000000000000000000000000000000000000000815260040160405180910390fd5b6000600183815481106105d2576105d26111de565b90600052602060002090600202016040518060400160405290816000820180546105fb906111f4565b80601f0160208091040260200160405190810160405280929190818152602001828054610627906111f4565b80156106745780601f1061064957610100808354040283529160200191610674565b820191906000526020600020905b81548152906001019060200180831161065757829003601f168201915b50505091835250506001919091015461ffff90811660209283015290820151919250166000036106d0576040517f88fd452900000000000000000000000000000000000000000000000000000000815260040160405180910390fd5b600183815481106106e3576106e36111de565b600091825260208220600160029092020101805461ffff169161070583611244565b91906101000a81548161ffff021916908361ffff160217905550506001600461072e33866101f7565b60405161073b9190611228565b9081526040805160209281900383018120805460ff191694151594909417909355606083018152338352835191830191825242908301526002805460018101825560009190915282517f405787fa12a823e0f2b7631cc41b3ba8828b3321ca811111fa75cd3aa3bb5ace6003909202918201805473ffffffffffffffffffffffffffffffffffffffff19166001600160a01b0390921691909117815591517f405787fa12a823e0f2b7631cc41b3ba8828b3321ca811111fa75cd3aa3bb5acf9091019061080890826112b1565b5060409182015160029091015551339084907f7534124779d4d1eaf9cabba5f94b2b281856aba81c295cde4c9e69483b04b8cc90600090a3505050565b60606002805480602002602001604051908101604052809291908181526020016000905b828210156104ea57600084815260209081902060408051606081019091526003850290910180546001600160a01b0316825260018101805492939192918401916108b2906111f4565b80601f01602080910402602001604051908101604052809291908181526020018280546108de906111f4565b801561092b5780601f106109005761010080835404028352916020019161092b565b820191906000526020600020905b81548152906001019060200180831161090e57829003601f168201915b5050505050815260200160028201548152505081526020019060010190610869565b610955610dcc565b604080516020808201909252600090528251908301207f3a2db9fe7908dcc36d81824d2338fc3f1aff49ac357dd8c4840527fba27a5b90016109c3576040517fee4d498a00000000000000000000000000000000000000000000000000000000815260040160405180910390fd5b8061ffff16600003610a01576040517fc40bdd0600000000000000000000000000000000000000000000000000000000815260040160405180910390fd5b6040805180820190915282815261ffff82166020820152600180548082018255600091909152815160029091027fb10e2d527612073b26eecdfd717e6a320cf44b4afac2b0732d9fcbe2b7fa0cf601908190610a5d90826112b1565b50602091909101516001909101805461ffff191661ffff90921691909117905560038054906000610a8d83611371565b91905055507fd4568aa4f169f5f39691140d56cd40c5a4f026868daa707efc62a9897431ba456001600354610ac291906111cb565b8383604051610ad39392919061138a565b60405180910390a15050565b6004610aeb33836101f7565b604051610af89190611228565b9081526040519081900360200190205460ff16610b41576040517f858c772f00000000000000000000000000000000000000000000000000000000815260040160405180910390fd5b60018181548110610b5457610b546111de565b600091825260208220600160029092020101805461ffff1691610b76836113b7565b91906101000a81548161ffff021916908361ffff1602179055505060006004610b9f33846101f7565b604051610bac9190611228565b908152604051908190036020018120805492151560ff1990931692909217909155339082907f8430f3edf8e599216e82e74036a3997b56dda6283ea97e28f330b76e914eef6190600090a350565b610c02610dcc565b6001600160a01b038116610c835760405162461bcd60e51b815260206004820152602660248201527f4f776e61626c653a206e6577206f776e657220697320746865207a65726f206160448201527f646472657373000000000000000000000000000000000000000000000000000060648201526084015b60405180910390fd5b610c8c81610e26565b50565b606081600003610cd257505060408051808201909152600181527f3000000000000000000000000000000000000000000000000000000000000000602082015290565b8160005b8115610cfc5780610ce681611371565b9150610cf59050600a836113ee565b9150610cd6565b60008167ffffffffffffffff811115610d1757610d17611078565b6040519080825280601f01601f191660200182016040528015610d41576020820181803683370190505b5090505b8415610dc457610d566001836111cb565b9150610d63600a86611402565b610d6e906030611416565b60f81b818381518110610d8357610d836111de565b60200101907effffffffffffffffffffffffffffffffffffffffffffffffffffffffffffff1916908160001a905350610dbd600a866113ee565b9450610d45565b949350505050565b6000546001600160a01b031633146105055760405162461bcd60e51b815260206004820181905260248201527f4f776e61626c653a2063616c6c6572206973206e6f7420746865206f776e65726044820152606401610c7a565b600080546001600160a01b0383811673ffffffffffffffffffffffffffffffffffffffff19831681178455604051919092169283917f8be0079c531659141344cd1fd0a4f28419497f9722a3daafe3b4186f6b6457e09190a35050565b80356001600160a01b0381168114610e9a57600080fd5b919050565b60008060408385031215610eb257600080fd5b610ebb83610e83565b946020939093013593505050565b60005b83811015610ee4578181015183820152602001610ecc565b50506000910152565b60008151808452610f05816020860160208601610ec9565b601f01601f19169290920160200192915050565b602081526000610f2c6020830184610eed565b9392505050565b600060208284031215610f4557600080fd5b5035919050565b6000815160408452610f616040850182610eed565b60209384015161ffff16949093019390935250919050565b602081526000610f2c6020830184610f4c565b6000602080830181845280855180835260408601915060408160051b870101925083870160005b82811015610fe157603f19888603018452610fcf858351610f4c565b94509285019290850190600101610fb3565b5092979650505050505050565b60006020808301818452808551808352604092508286019150828160051b87010184880160005b8381101561106a57603f19898403018552815160606001600160a01b03825116855288820151818a87015261104c82870182610eed565b92890151958901959095525094870194925090860190600101611015565b509098975050505050505050565b634e487b7160e01b600052604160045260246000fd5b803561ffff81168114610e9a57600080fd5b600080604083850312156110b357600080fd5b823567ffffffffffffffff808211156110cb57600080fd5b818501915085601f8301126110df57600080fd5b8135818111156110f1576110f1611078565b604051601f8201601f19908116603f0116810190838211818310171561111957611119611078565b8160405282815288602084870101111561113257600080fd5b8260208601602083013760006020848301015280965050505050506111596020840161108e565b90509250929050565b60006020828403121561117457600080fd5b610f2c82610e83565b6bffffffffffffffffffffffff198360601b168152600082516111a7816014850160208701610ec9565b919091016014019392505050565b634e487b7160e01b600052601160045260246000fd5b81810381811115610226576102266111b5565b634e487b7160e01b600052603260045260246000fd5b600181811c9082168061120857607f821691505b60208210810361036557634e487b7160e01b600052602260045260246000fd5b6000825161123a818460208701610ec9565b9190910192915050565b600061ffff821680611258576112586111b5565b6000190192915050565b601f8211156112ac57600081815260208120601f850160051c810160208610156112895750805b601f850160051c820191505b818110156112a857828155600101611295565b5050505b505050565b815167ffffffffffffffff8111156112cb576112cb611078565b6112df816112d984546111f4565b84611262565b602080601f83116001811461131457600084156112fc5750858301515b600019600386901b1c1916600185901b1785556112a8565b600085815260208120601f198616915b8281101561134357888601518255948401946001909101908401611324565b50858210156113615787850151600019600388901b60f8161c191681555b5050505050600190811b01905550565b600060018201611383576113836111b5565b5060010190565b8381526060602082015260006113a36060830185610eed565b905061ffff83166040830152949350505050565b600061ffff8083168181036113ce576113ce6111b5565b6001019392505050565b634e487b7160e01b600052601260045260246000fd5b6000826113fd576113fd6113d8565b500490565b600082611411576114116113d8565b500690565b80820180821115610226576102266111b556fea264697066735822122013e2eb228f291f9921b0be636fbf9edd73a8740992868216290f25e0542fa63164736f6c63430008110033",
  "linkReferences": {},
  "deployedLinkReferences": {}
}